:100000000EC015C014C013C012C011C010C00FC064
:100010000FC00DC00CC00BC00AC009C008C011241D
:100020001FBECFE5D2E0DEBFCDBF0CD041C0E8CFD0
:100030001F920F920FB60F9211240F900FBE0F90C8
:100040001F9018953D9A329A339A379AA49AA39A98
:100050008AB581608ABD8AB580688ABD8AB58F7B82
:100060008ABD8AB580628ABD8AB58F7E8ABD83B714
:10007000826083BFB89AB99A789490E031E0292FD2
:10008000232787B1807F992311F0836001C08260AC
:1000900087B985B7806285BF889585B78F7D85BF15
:1000A00085B1992319F089BD922FE9CF88BDFCCF86
:0400B000F894FFCFF2
:00000001FF
