:100000000EC015C014C013C012C011C010C00FC064
:100010000FC00DC00CC00BC00AC009C008C011241D
:100020001FBECFE5D2E0DEBFCDBF0CD08EC4E8CF7F
:100030001F920F920FB60F9211240F900FBE0F90C8
:100040001F901895CF93DF93CDB7DEB7DA950FB633
:10005000F894DEBF0FBECDBF3D9A329A339A379ADD
:10006000A49AA39A8AB581608ABD8AB580688ABD40
:100070008AB580648ABD8AB580628ABD8AB580618E
:100080008ABD83B7826083BFB89AB99AFE01319660
:1000900080E091E0DF019C011D9221503040E1F7AA
:1000A00081E08C878D878E878F87888B898B8A8B61
:1000B0008B8B82E08C8B8D8B8E8B8F8B888F898F37
:1000C00083E08A8F8B8F8C8F8D8F84E08E8F8F8FC4
:1000D00088A389A385E08AA38BA38CA38DA386E044
:1000E0008EA38FA388A787E089A78AA78BA788E01C
:1000F0008CA78DA78EA789E08FA788AB89AB8AE0F4
:100100008AAB8BAB8BE08CAB8DAB8EAB8CE08FABCB
:1001100088AF8DE089AF8AAF8EE08BAF8CAF8FE078
:100120008DAF8EAF80E18FAF21968FAF219781E1A8
:1001300022968FAF229723968FAF239782E1249642
:100140008FAF249725968FAF259783E126968FAFA3
:10015000269727968FAF279784E128968FAF289709
:1001600029968FAF299785E12A968FAF2A972B96EC
:100170008FAF2B9786E12C968FAF2C9787E12D962A
:100180008FAF2D972E968FAF2E9788E12F968FAF3A
:100190002F9760968FAF609789E161968FAF6197D7
:1001A0008AE162968FAF629763968FAF63978BE118
:1001B00064968FAF64978CE165968FAF659766966E
:1001C0008FAF66978DE167968FAF67978EE16896E0
:1001D0008FAF689769968FAF69978FE16A968FAFF7
:1001E0006A9780E26B968FAF6B976C968FAF6C9728
:1001F00081E26D968FAF6D9782E26E968FAF6E97AC
:1002000083E26F968FAF6F97A0968FAFA09784E22F
:10021000A1968FAFA19785E2A2968FAFA29786E2B3
:10022000A3968FAFA397A4968FAFA49787E2A596C6
:100230008FAFA59788E2A6968FAFA69789E2A7967B
:100240008FAFA7978AE2A8968FAFA897A9968FAF8E
:10025000A9978BE2AA968FAFAA978CE2AB968FAF45
:10026000AB978DE2AC968FAFAC978EE2AD968FAF29
:10027000AD978FE2AE968FAFAE97AF968FAFAF9739
:1002800080E3E0968FAFE09781E3E1968FAFE1974F
:1002900082E3E2968FAFE29783E3E3968FAFE39733
:1002A00084E3E4968FAFE49785E3E5968FAFE59717
:1002B00086E3E6968FAFE69787E3E7968FAFE797FB
:1002C00088E3E8968FAFE897E9968FAFE99789E3DF
:1002D000EA968FAFEA978AE3EB968FAFEB978BE3C3
:1002E000EC968FAFEC978CE3ED968FAFED978DE3A7
:1002F000EE968FAFEE978EE3EF968FAFEF978FE38B
:10030000C158DF4F8883CF57D04080E4C058DF4FBB
:100310008883C058D04081E4CF57DF4F8883C158CD
:10032000D04082E4CE57DF4F8883C258D04083E468
:10033000CD57DF4F8883C358D04084E4CC57DF4F7C
:100340008883C458D04085E4CB57DF4F8883C55895
:10035000D04086E4CA57DF4F8883C658D04087E430
:10036000C957DF4F8883C758D04089E4C857DF4F4B
:100370008883C858D0408AE4C757DF4F8883C9585C
:10038000D0408BE4C657DF4F8883CA58D0408CE4F6
:10039000C557DF4F8883CB58D0408DE4C457DF4F1B
:1003A0008883CC58D0408EE4C357DF4F8883CD5824
:1003B000D0408FE4C257DF4F8883CE58D04080E5CD
:1003C000C157DF4F8883CF58D04081E5C057DF4FFA
:1003D0008883C059D04082E5CF56DF4F8883C1590A
:1003E000D04084E5CE56DF4F8883C259D04085E5A2
:1003F000CD56DF4F8883C359D04086E5CC56DF4FBA
:100400008883C459D04087E5CB56DF4F8883C559D0
:10041000D04088E5CA56DF4F8883C659D04089E569
:10042000C956DF4F8883C759D0408BE5C856DF4F88
:100430008883C859D0408CE5C756DF4F8883C95997
:10044000D0408DE5C656DF4F8883CA59D0408EE52F
:10045000C556DF4F8883CB59D0408FE5C456DF4F58
:100460008883CC59D04081E6C356DF4F8883CD596D
:10047000D04082E6C256DF4F8883CE59D04083E613
:10048000C156DF4F8883CF59D04084E6C056DF4F36
:100490008883C05AD04086E6CF55DF4F8883C15A43
:1004A000D04087E6CE55DF4F8883C25AD04088E6D9
:1004B000CD55DF4F8883C35AD04089E6CC55DF4FF6
:1004C0008883C45AD0408BE6CB55DF4F8883C55A0A
:1004D000D0408CE6CA55DF4F8883C65AD0408DE69F
:1004E000C955DF4F8883C75AD0408FE6C855DF4FC4
:1004F0008883C85AD04080E7C755DF4F8883C95AE0
:10050000D04081E7C655DF4F8883CA5AD04083E781
:10051000C555DF4F8883CB5AD04084E7C455DF4FA1
:100520008883CC5AD04085E7C355DF4F8883CD5AA6
:10053000D04087E7C255DF4F8883CE5AD04088E746
:10054000C155DF4F8883CF5AD04089E7C055DF4F70
:100550008883C05BD0408BE7CF54DF4F8883C15B7B
:10056000D0408CE7CE54DF4F8883C25BD0408EE70B
:10057000CD54DF4F8883C35BD0408FE7CC54DF4F2F
:100580008883C45BD04080E8CB54DF4F8883C55B51
:10059000D04082E8CA54DF4F8883C65BD04083E8EE
:1005A000C954DF4F8883C75BD04085E8C854DF4F0C
:1005B0008883C85BD04086E8C754DF4F8883C95B17
:1005C000D04088E8C654DF4F8883CA5BD04089E8B2
:1005D000C554DF4F8883CB5BD0408BE8C454DF4FDA
:1005E0008883CC5BD0408CE8C354DF4F8883CD5BDD
:1005F000D0408EE8C254DF4F8883CE5BD0408FE876
:10060000C154DF4F8883CF5BD04081E9C054DF4FB6
:100610008883C05CD04082E9CF53DF4F8883C15CC0
:10062000D04084E9CE53DF4F8883C25CD04085E957
:10063000CD53DF4F8883C35CD04087E9CC53DF4F75
:100640008883C45CD04088E9CB53DF4F8883C55C86
:10065000D0408AE9CA53DF4F8883C65CD0408BE91B
:10066000C953DF4F8883C75CD0408DE9C853DF4F43
:100670008883C85CD0408EE9C753DF4F8883C95C4C
:10068000D04080EAC653DF4F8883CA5CD04082EAFC
:10069000C553DF4F8883CB5CD04083EAC453DF4F20
:1006A0008883CC5CD04085EAC353DF4F8883CD5C20
:1006B000D04086EAC253DF4F8883CE5CD04088EAC0
:1006C000C153DF4F8883CF5CD0408AEAC053DF4FED
:1006D0008883C05DD0408BEACF52DF4F8883C15DF5
:1006E000D0408DEACE52DF4F8883C25DD0408FEA82
:1006F000CD52DF4F8883C35DD04080EBCC52DF4FBB
:100700008883C45DD04082EBCB52DF4F8883C55DC8
:10071000D04084EBCA52DF4F8883C65DD04085EB62
:10072000C952DF4F8883C75DD04087EBC852DF4F87
:100730008883C85DD04089EBC752DF4F8883C95D8D
:10074000D0408AEBC652DF4F8883CA5DD0408CEB25
:10075000C552DF4F8883CB5DD0408EEBC452DF4F54
:100760008883CC5DD04080ECC352DF4F8883CD5D61
:10077000D04081ECC252DF4F8883CE5DD04083EC05
:10078000C152DF4F8883CF5DD04085ECC052DF4F30
:100790008883C05ED04087ECCF51DF4F8883C15E35
:1007A000D04088ECCE51DF4F8883C25ED0408AECC7
:1007B000CD51DF4F8883C35ED0408CECCC51DF4FEE
:1007C0008883C45ED0408EECCB51DF4F8883C55EFA
:1007D000D0408FECCA51DF4F8883C65ED04081ED98
:1007E000C951DF4F8883C75ED04083EDC851DF4FCA
:1007F0008883C85ED04085EDC751DF4F8883C95ECE
:10080000D04087EDC651DF4F8883CA5ED04089ED66
:10081000C551DF4F8883CB5ED0408AEDC451DF4F96
:100820008883CC5ED0408CEDC351DF4F8883CD5E92
:10083000D0408EEDC251DF4F8883CE5ED04080EE37
:10084000C151DF4F8883CF5ED04082EEC051DF4F71
:100850008883C05FD04084EECF50DF4F8883C15F74
:10086000D04086EECE50DF4F8883C25FD04088EE06
:10087000CD50DF4F8883C35FD04089EECC50DF4F2F
:100880008883C45FD0408BEECB50DF4F8883C55F39
:10089000D0408DEECA50DF4F8883C65FD0408FEEC8
:1008A000C950DF4F8883C75FD04081EFC850DF4F0A
:1008B0008883C85FD04083EFC750DF4F8883C95F0C
:1008C000D04085EFC650DF4F8883CA5FD04087EFA6
:1008D000C550DF4F8883CB5FD04089EFC450DF4FD6
:1008E0008883CC5FD0408BEFC350DF4F8883CD5FD0
:1008F000D0408DEFC250DF4F8883CE5FD0408FEF66
:10090000C150DF4F8883CF5FD040789490E031E0D2
:10091000292F232787B1807F992311F0836001C09D
:10092000826087B985B7806285BF889585B78F7DDE
:1009300085BF85B1DF01A80FB11D8C91992319F0F6
:0E09400089BD922FE5CF88BDFCCFF894FFCF84
:00000001FF
