:100000000EC015C014C013C012C011C010C00FC064
:100010000FC00DC00CC00BC00AC009C008C011241D
:100020001FBECFE5D2E0DEBFCDBF0CD09CC4E8CF71
:100030001F920F920FB60F9211240F900FBE0F90C8
:100040001F901895CF93DF93CDB7DEB7DA950FB633
:10005000F894DEBF0FBECDBF3D9A329A339A379ADD
:10006000A49AA39A8AB581608ABD8AB580688ABD40
:100070008AB58F7B8ABD8AB580628ABD8AB58F7E3C
:100080008ABD83B7826083BFB89AB99AFE01319660
:1000900080E091E0DF019C011D9221503040E1F7AA
:1000A00081E08B838C838D838E838F838887898780
:1000B0008A8782E08B878C878D878E878F87888B56
:1000C00083E0898B8A8B8B8B8C8B8D8B84E08E8BE2
:1000D0008F8B888F898F85E08A8F8B8F8C8F8D8F08
:1000E00086E08E8F8F8F88A387E089A38AA38BA356
:1000F00088E08CA38DA38EA389E08FA388A789A70E
:100100008AE08AA78BA78CA78BE08DA78EA78CE0AF
:100110008FA788AB8DE089AB8AAB8BAB8EE08CABC5
:100120008DAB8FE08EAB8FAB80E188AF89AF81E183
:100130008AAF8BAF82E18CAF8DAF83E18EAF8FAF93
:1001400084E121968FAF219722968FAF229785E188
:1001500023968FAF239724968FAF249786E1259619
:100160008FAF259787E126968FAF269727968FAF7B
:10017000279788E128968FAF289729968FAF2997E0
:1001800089E12A968FAF2A978AE12B968FAF2B971A
:100190002C968FAF2C978BE12D968FAF2D972E96A7
:1001A0008FAF2E978CE12F968FAF2F978DE16096B2
:1001B0008FAF609761968FAF61978EE162968FAF38
:1001C00062978FE163968FAF639764968FAF649762
:1001D00080E265968FAF659781E266968FAF6697EE
:1001E00067968FAF679782E268968FAF689783E2D2
:1001F00069968FAF699784E26A968FAF6A976B961C
:100200008FAF6B9785E26C968FAF6C9786E26D9699
:100210008FAF6D9787E26E968FAF6E976F968FAFA9
:100220006F9788E2A0968FAFA09789E2A1968FAFD3
:10023000A1978AE2A2968FAFA297A3968FAFA397BA
:100240008BE2A4968FAFA4978CE2A5968FAFA5976B
:100250008DE2A6968FAFA6978EE2A7968FAFA7974F
:100260008FE2A8968FAFA897A9968FAFA99780E342
:10027000AA968FAFAA9781E3AB968FAFAB9782E335
:10028000AC968FAFAC9783E3AD968FAFAD9784E319
:10029000AE968FAFAE97AF968FAFAF9785E3E096F0
:1002A0008FAFE09786E3E1968FAFE19787E3E29621
:1002B0008FAFE29788E3E3968FAFE39789E3E49605
:1002C0008FAFE4978AE3E5968FAFE5978BE3E696E9
:1002D0008FAFE6978CE3E7968FAFE7978DE3E896CD
:1002E0008FAFE8978EE3E9968FAFE9978FE3EA96B1
:1002F0008FAFEA9780E4EB968FAFEB9781E4EC96B3
:100300008FAFEC9782E4ED968FAFED9783E4EE9696
:100310008FAFEE9784E4EF968FAFEF9785E4C158E7
:10032000DF4F8883CF57D04086E4C058DF4F8883A3
:10033000C058D04087E4CF57DF4F8883C158D040A2
:1003400088E4CE57DF4F8883C258D04089E4CD5728
:10035000DF4F8883C358D0408AE4CC57DF4F88836F
:10036000C458D0408BE4CB57DF4F8883C558D0406A
:100370008CE4CA57DF4F8883C658D0408DE4C957F4
:10038000DF4F8883C758D0408EE4C857DF4F88833B
:10039000C858D0408FE4C757DF4F8883C958D04032
:1003A00080E5C657DF4F8883CA58D04081E5C557DE
:1003B000DF4F8883CB58D04082E5C457DF4F888316
:1003C000CC58D04083E5C357DF4F8883CD58D04009
:1003D00084E5C257DF4F8883CE58D04086E5C157A9
:1003E000DF4F8883CF58D04087E5C057DF4F8883E1
:1003F000C059D04088E5CF56DF4F8883C159D040DF
:1004000089E5CE56DF4F8883C259D0408AE5CD5664
:10041000DF4F8883C359D0408BE5CC56DF4F8883AC
:10042000C459D0408CE5CB56DF4F8883C559D040A6
:100430008EE5CA56DF4F8883C659D0408FE5C9562E
:10044000DF4F8883C759D04080E6C856DF4F888386
:10045000C859D04081E6C756DF4F8883C959D0407C
:1004600082E6C656DF4F8883CA59D04084E6C55617
:10047000DF4F8883CB59D04085E6C456DF4F888351
:10048000CC59D04086E6C356DF4F8883CD59D04043
:1004900087E6C256DF4F8883CE59D04088E6C156E2
:1004A000DF4F8883CF59D0408AE6C056DF4F88831C
:1004B000C05AD0408BE6CF55DF4F8883C15AD04019
:1004C0008CE6CE55DF4F8883C25AD0408EE6CD559C
:1004D000DF4F8883C35AD0408FE6CC55DF4F8883E7
:1004E000C45AD04080E7CB55DF4F8883C55AD040EF
:1004F00081E7CA55DF4F8883C65AD04083E7C95584
:10050000DF4F8883C75AD04084E7C855DF4F8883C0
:10051000C85AD04085E7C755DF4F8883C95AD040B5
:1005200087E7C655DF4F8883CA5AD04088E7C5554C
:10053000DF4F8883CB5AD04089E7C455DF4F88838B
:10054000CC5AD0408BE7C355DF4F8883CD5AD0407B
:100550008CE7C255DF4F8883CE5AD0408DE7C15516
:10056000DF4F8883CF5AD0408FE7C055DF4F888355
:10057000C05BD04080E8CF54DF4F8883C15BD04060
:1005800081E8CE54DF4F8883C25BD04083E8CD54EE
:10059000DF4F8883C35BD04084E8CC54DF4F88832F
:1005A000C45BD04086E8CB54DF4F8883C55BD04026
:1005B00087E8CA54DF4F8883C65BD04088E8C954B7
:1005C000DF4F8883C75BD0408AE8C854DF4F8883F9
:1005D000C85BD0408BE8C754DF4F8883C95BD040ED
:1005E0008DE8C654DF4F8883CA5BD0408EE8C5547F
:1005F000DF4F8883CB5BD04080E9C454DF4F8883D2
:10060000CC5BD04081E9C354DF4F8883CD5BD040C1
:1006100083E9C254DF4F8883CE5BD04084E9C15464
:10062000DF4F8883CF5BD04085E9C054DF4F88839C
:10063000C05CD04087E9CF53DF4F8883C15CD04096
:1006400088E9CE53DF4F8883C25CD0408AE9CD531E
:10065000DF4F8883C35CD0408BE9CC53DF4F888366
:10066000C45CD0408DE9CB53DF4F8883C55CD0405C
:100670008FE9CA53DF4F8883C65CD04080EAC953F4
:10068000DF4F8883C75CD04082EAC853DF4F88833E
:10069000C85CD04083EAC753DF4F8883C95CD04031
:1006A00085EAC653DF4F8883CA5CD04086EAC553CB
:1006B000DF4F8883CB5CD04088EAC453DF4F888308
:1006C000CC5CD04089EAC353DF4F8883CD5CD040F7
:1006D0008BEAC253DF4F8883CE5CD0408DEAC15392
:1006E000DF4F8883CF5CD0408EEAC053DF4F8883D2
:1006F000C05DD04080EBCF52DF4F8883C15DD040DA
:1007000081EBCE52DF4F8883C25DD04083EBCD5268
:10071000DF4F8883C35DD04085EBCC52DF4F8883A9
:10072000C45DD04086EBCB52DF4F8883C55DD0409F
:1007300088EBCA52DF4F8883C65DD0408AEBC9522E
:10074000DF4F8883C75DD0408BEBC852DF4F888373
:10075000C85DD0408DEBC752DF4F8883C95DD04064
:100760008FEBC652DF4F8883CA5DD04080ECC55204
:10077000DF4F8883CB5DD04082ECC452DF4F88834B
:10078000CC5DD04084ECC352DF4F8883CD5DD04038
:1007900085ECC252DF4F8883CE5DD04087ECC152DA
:1007A000DF4F8883CF5DD04089ECC052DF4F888314
:1007B000C05ED0408BECCF51DF4F8883C15ED0400C
:1007C0008CECCE51DF4F8883C25ED0408EECCD5191
:1007D000DF4F8883C35ED04080EDCC51DF4F8883EC
:1007E000C45ED04081EDCB51DF4F8883C55ED040E1
:1007F00083EDCA51DF4F8883C65ED04085EDC95175
:10080000DF4F8883C75ED04087EDC851DF4F8883B4
:10081000C85ED04089EDC751DF4F8883C95ED040A4
:100820008AEDC651DF4F8883CA5ED0408CEDC5513A
:10083000DF4F8883CB5ED0408EEDC451DF4F88837D
:10084000CC5ED04080EEC351DF4F8883CD5ED04078
:1008500082EEC251DF4F8883CE5ED04083EEC1511D
:10086000DF4F8883CF5ED04085EEC051DF4F888355
:10087000C05FD04087EECF50DF4F8883C15FD0404C
:1008800089EECE50DF4F8883C25FD0408BEECD50D3
:10089000DF4F8883C35FD0408DEECC50DF4F88831D
:1008A000C45FD0408FEECB50DF4F8883C55FD04010
:1008B00080EFCA50DF4F8883C65FD04082EFC950B7
:1008C000DF4F8883C75FD04084EFC850DF4F8883F5
:1008D000C85FD04086EFC750DF4F8883C95FD040E4
:1008E00088EFC650DF4F8883CA5FD0408AEFC5507B
:1008F000DF4F8883CB5FD0408CEFC450DF4F8883BD
:10090000CC5FD0408EEFC350DF4F8883CD5FD040A7
:100910008FEFC250DF4F8883CE5FD040C150DF4F92
:100920008883CF5FD040789490E031E0292F23274F
:1009300087B1807F992311F0836001C0826087B9FD
:1009400085B7806285BF889585B78F7D85BF85B166
:10095000DF01A80FB11D8C91992319F089BD922F49
:0A096000E5CF88BDFCCFF894FFCF6F
:00000001FF
